{
  "_format": "hh-sol-artifact-1",
  "contractName": "chai",
  "sourceName": "contracts/contract.sol",
  "abi": [
    {
      "inputs": [],
      "stateMutability": "nonpayable",
      "type": "constructor"
    },
    {
      "inputs": [],
      "name": "buyChai",
      "outputs": [],
      "stateMutability": "payable",
      "type": "function"
    }
  ],
  "bytecode": "0x608060405234801561001057600080fd5b50336000806101000a81548173ffffffffffffffffffffffffffffffffffffffff021916908373ffffffffffffffffffffffffffffffffffffffff16021790555061018c806100606000396000f3fe60806040526004361061001e5760003560e01c80634396a74014610023575b600080fd5b61002b61002d565b005b60003411610070576040517f08c379a000000000000000000000000000000000000000000000000000000000815260040161006790610136565b60405180910390fd5b60008054906101000a900473ffffffffffffffffffffffffffffffffffffffff1673ffffffffffffffffffffffffffffffffffffffff166108fc349081150290604051600060405180830381858888f193505050501580156100d6573d6000803e3d6000fd5b50565b600082825260208201905092915050565b7f506c65617365207061792067726561746572207468616e203020657468657200600082015250565b6000610120601f836100d9565b915061012b826100ea565b602082019050919050565b6000602082019050818103600083015261014f81610113565b905091905056fea2646970667358221220f7def880d340e077a14af5c3e0661d3c5b4b16a7e02417f663d805a655a10eeb64736f6c63430008110033",
  "linkReferences": {},
  "deployedLinkReferences": {}
}